{
  "address": "0x90770d8950fc41160a01b9d15dcfcF8E30cc0799",
  "abi": [
    {
      "inputs": [
        {
          "internalType": "address",
          "name": "user",
          "type": "address"
        },
        {
          "internalType": "uint256",
          "name": "blockNumber",
          "type": "uint256"
        },
        {
          "internalType": "bytes",
          "name": "extraData",
          "type": "bytes"
        }
      ],
      "name": "queryVotePower",
      "outputs": [
        {
          "internalType": "uint256",
          "name": "",
          "type": "uint256"
        }
      ],
      "stateMutability": "nonpayable",
      "type": "function"
    }
  ],
  "transactionHash": "0x2e996ffac337c56f737ceece384dea4c1762359a51e7d94c37d6c9fb42736967",
  "args": [],
  "numDeployments": 1,
  "solcInputHash": "de8a9e6671cf44320fb449edaa342a2d",
  "bytecode": "0x608060405234801561001057600080fd5b50610172806100206000396000f3fe608060405234801561001057600080fd5b506004361061002b5760003560e01c8063e91f323514610030575b600080fd5b61004361003e366004610077565b610055565b60405190815260200160405180910390f35b6000806100648385018561010c565b6001600160801b03169695505050505050565b6000806000806060858703121561008d57600080fd5b84356001600160a01b03811681146100a457600080fd5b935060208501359250604085013567ffffffffffffffff808211156100c857600080fd5b818701915087601f8301126100dc57600080fd5b8135818111156100eb57600080fd5b8860208285010111156100fd57600080fd5b95989497505060200194505050565b60006020828403121561011e57600080fd5b81356001600160801b038116811461013557600080fd5b939250505056fea26469706673582212200747302d59615f04ac0f1a9666d3e36c833fa7a8908dff40375a87fccb50aabc64736f6c634300080a0033",
  "devdoc": {
    "kind": "dev",
    "methods": {
      "queryVotePower(address,uint256,bytes)": {
        "params": {
          "blockNumber": "the block number we want the user's voting power at",
          "extraData": "Abi encoded optional extra data used by some vaults, such as merkle proofs",
          "user": "The address we want to load the voting power of"
        },
        "returns": {
          "_0": "the number of votes"
        }
      }
    },
    "version": 1
  },
  "userdoc": {
    "kind": "user",
    "methods": {
      "queryVotePower(address,uint256,bytes)": {
        "notice": "Attempts to load the voting power of a user"
      }
    },
    "version": 1
  },
  "storageLayout": {
    "storage": [],
    "types": null
  }
}