{
  "address": "0xE8fF097481A54Ea1730c8828cf6B8F5eB3f64D85",
  "abi": [
    {
      "inputs": [
        {
          "internalType": "contract IERC721",
          "name": "_token",
          "type": "address"
        },
        {
          "internalType": "contract IERC20",
          "name": "_govToken",
          "type": "address"
        },
        {
          "internalType": "contract IERC20",
          "name": "_weth",
          "type": "address"
        },
        {
          "internalType": "uint24",
          "name": "_feeTier",
          "type": "uint24"
        },
        {
          "internalType": "contract INonfungiblePositionManager",
          "name": "_NFTPositionManager",
          "type": "address"
        },
        {
          "internalType": "contract IUniswapV3Factory",
          "name": "_Factory",
          "type": "address"
        },
        {
          "internalType": "address",
          "name": "polyMailBoxAddy",
          "type": "address"
        },
        {
          "internalType": "address",
          "name": "polyGasAddy",
          "type": "address"
        }
      ],
      "stateMutability": "nonpayable",
      "type": "constructor"
    },
    {
      "inputs": [],
      "name": "interchainGasPaymaster",
      "outputs": [
        {
          "internalType": "contract IInterchainGasPaymaster",
          "name": "",
          "type": "address"
        }
      ],
      "stateMutability": "view",
      "type": "function"
    },
    {
      "inputs": [
        {
          "components": [
            {
              "internalType": "address",
              "name": "desiredPool",
              "type": "address"
            },
            {
              "internalType": "int24",
              "name": "centerTick",
              "type": "int24"
            },
            {
              "internalType": "int24",
              "name": "width",
              "type": "int24"
            },
            {
              "internalType": "address",
              "name": "userToken",
              "type": "address"
            },
            {
              "internalType": "uint256",
              "name": "token0AmountDesired",
              "type": "uint256"
            },
            {
              "internalType": "uint256",
              "name": "token1AmountDesired",
              "type": "uint256"
            }
          ],
          "internalType": "struct otherChainVault.posInfo",
          "name": "v3Info",
          "type": "tuple"
        },
        {
          "internalType": "address",
          "name": "gnosisUser",
          "type": "address"
        }
      ],
      "name": "mintPosition",
      "outputs": [],
      "stateMutability": "nonpayable",
      "type": "function"
    },
    {
      "inputs": [
        {
          "internalType": "address",
          "name": "sender",
          "type": "address"
        },
        {
          "internalType": "uint256",
          "name": "gasAmount",
          "type": "uint256"
        }
      ],
      "name": "sendPositionInfo",
      "outputs": [],
      "stateMutability": "nonpayable",
      "type": "function"
    },
    {
      "inputs": [
        {
          "internalType": "address",
          "name": "sender",
          "type": "address"
        },
        {
          "internalType": "address",
          "name": "specifiedUser",
          "type": "address"
        },
        {
          "internalType": "int24",
          "name": "width",
          "type": "int24"
        },
        {
          "internalType": "uint128",
          "name": "liquidty",
          "type": "uint128"
        },
        {
          "internalType": "int24",
          "name": "lowerBound",
          "type": "int24"
        },
        {
          "internalType": "int24",
          "name": "upperBound",
          "type": "int24"
        },
        {
          "internalType": "uint256",
          "name": "gasAmount",
          "type": "uint256"
        }
      ],
      "name": "sendPositionInfo",
      "outputs": [],
      "stateMutability": "nonpayable",
      "type": "function"
    },
    {
      "inputs": [
        {
          "internalType": "address",
          "name": "",
          "type": "address"
        },
        {
          "internalType": "uint256",
          "name": "",
          "type": "uint256"
        }
      ],
      "name": "userPositions",
      "outputs": [
        {
          "internalType": "uint256",
          "name": "",
          "type": "uint256"
        }
      ],
      "stateMutability": "view",
      "type": "function"
    }
  ],
  "transactionHash": "0xf45aef5208687ae33c8cb31264b93205d4fc8d0d4c512bf03779774b4caa8eef",
  "args": [
    "0x963C7950B97e2ce301Eb49Fb1928aA5C7fe8e8eC",
    "0x5fe9b2cacd42593408a49d97aa061a1666c595e9",
    "0x963C7950B97e2ce301Eb49Fb1928aA5C7fe8e8eC",
    3000,
    "0xc36442b4a4522e871399cd717abdd847ab11fe88",
    "0x1F98431c8aD98523631AE4a59f267346ea31F984",
    "0x35231d4c2D8B8ADcB5617A638A0c4548684c7C70",
    "0x56f52c0A1ddcD557285f7CBc782D3d83096CE1Cc"
  ],
  "numDeployments": 1,
  "solcInputHash": "1f8fc1b54cbeaf630528a0a05cca3a5f",
  "bytecode": "0x6101a0604052736f374ed9e54e961c5bedfa468fb332e6ec5e68a1610100523480156200002b57600080fd5b506040516200121f3803806200121f8339810160408190526200004e91620000a8565b6001600160a01b0397881660805295871660a05293861660c05262ffffff90921660e052841661016052831661018052821661012052166101405262000170565b6001600160a01b0381168114620000a557600080fd5b50565b600080600080600080600080610100898b031215620000c657600080fd5b8851620000d3816200008f565b60208a0151909850620000e6816200008f565b60408a0151909750620000f9816200008f565b60608a015190965062ffffff811681146200011357600080fd5b60808a015190955062000126816200008f565b60a08a015190945062000139816200008f565b60c08a01519093506200014c816200008f565b60e08a01519092506200015f816200008f565b809150509295985092959890939650565b60805160a05160c05160e051610100516101205161014051610160516101805161102f620001f0600039600050506000818161044801528181610555015261086b01526000608901526000818161012101526109a801526000818161015501526109dc015260006107e6015260005050600050506000505061102f6000f3fe608060405234801561001057600080fd5b50600436106100575760003560e01c806317042c0b1461005c5780632050cb6c1461007157806339bb4ad9146100845780635e1b4d99146100c8578063e64a1e1b146100e9575b600080fd5b61006f61006a366004610abe565b6100fc565b005b61006f61007f366004610b04565b61020a565b6100ab7f000000000000000000000000000000000000000000000000000000000000000081565b6040516001600160a01b0390911681526020015b60405180910390f35b6100db6100d6366004610abe565b61091d565b6040519081526020016100bf565b61006f6100f7366004610bdb565b61094e565b60408051610390602082015260009101604051602081830303815290604052905060007f00000000000000000000000000000000000000000000000000000000000000006001600160a01b031663fa31de0160646101807f00000000000000000000000000000000000000000000000000000000000000006001600160a01b031690565b8588604051602001610193929190610cb5565b6040516020818303038152906040526040518463ffffffff1660e01b81526004016101c093929190610cdf565b6020604051808303816000875af11580156101df573d6000803e3d6000fd5b505050506040513d601f19601f820116820180604052508101906102039190610d0d565b5050505050565b81600001516001600160a01b0316630dfe16816040518163ffffffff1660e01b8152600401602060405180830381865afa15801561024c573d6000803e3d6000fd5b505050506040513d601f19601f820116820180604052508101906102709190610d26565b6001600160a01b03166323b872dd333085608001516040518463ffffffff1660e01b81526004016102a393929190610d4a565b6020604051808303816000875af11580156102c2573d6000803e3d6000fd5b505050506040513d601f19601f820116820180604052508101906102e69190610d6e565b5081600001516001600160a01b031663d21220a76040518163ffffffff1660e01b8152600401602060405180830381865afa158015610329573d6000803e3d6000fd5b505050506040513d601f19601f8201168201806040525081019061034d9190610d26565b6001600160a01b03166323b872dd33308560a001516040518463ffffffff1660e01b815260040161038093929190610d4a565b6020604051808303816000875af115801561039f573d6000803e3d6000fd5b505050506040513d601f19601f820116820180604052508101906103c39190610d6e565b50600082600001516001600160a01b0316630dfe16816040518163ffffffff1660e01b8152600401602060405180830381865afa158015610408573d6000803e3d6000fd5b505050506040513d601f19601f8201168201806040525081019061042c9190610d26565b608084015160405163095ea7b360e01b81526001600160a01b037f000000000000000000000000000000000000000000000000000000000000000081166004830152602482019290925291169063095ea7b3906044016020604051808303816000875af11580156104a1573d6000803e3d6000fd5b505050506040513d601f19601f820116820180604052508101906104c59190610d6e565b9050806104d157600080fd5b600083600001516001600160a01b031663d21220a76040518163ffffffff1660e01b8152600401602060405180830381865afa158015610515573d6000803e3d6000fd5b505050506040513d601f19601f820116820180604052508101906105399190610d26565b60a085015160405163095ea7b360e01b81526001600160a01b037f000000000000000000000000000000000000000000000000000000000000000081166004830152602482019290925291169063095ea7b3906044016020604051808303816000875af11580156105ae573d6000803e3d6000fd5b505050506040513d601f19601f820116820180604052508101906105d29190610d6e565b9050806105de57600080fd5b600084600001516001600160a01b031663d0c93a7c6040518163ffffffff1660e01b8152600401602060405180830381865afa158015610622573d6000803e3d6000fd5b505050506040513d601f19601f820116820180604052508101906106469190610d90565b85604001516106559190610dc3565b85602001516106649190610e50565b9050600085600001516001600160a01b031663d0c93a7c6040518163ffffffff1660e01b8152600401602060405180830381865afa1580156106aa573d6000803e3d6000fd5b505050506040513d601f19601f820116820180604052508101906106ce9190610d90565b86604001516106dd9190610dc3565b86602001516106ec9190610e98565b9050600060405180610160016040528088600001516001600160a01b0316630dfe16816040518163ffffffff1660e01b8152600401602060405180830381865afa15801561073e573d6000803e3d6000fd5b505050506040513d601f19601f820116820180604052508101906107629190610d26565b6001600160a01b0316815260200188600001516001600160a01b031663d21220a76040518163ffffffff1660e01b8152600401602060405180830381865afa1580156107b2573d6000803e3d6000fd5b505050506040513d601f19601f820116820180604052508101906107d69190610d26565b6001600160a01b031681526020017f000000000000000000000000000000000000000000000000000000000000000062ffffff1681526020018460020b81526020018360020b8152602001886080015181526020018860a0015181526020016000815260200160008152602001306001600160a01b0316815260200142620f42406108619190610edf565b81525090506000807f00000000000000000000000000000000000000000000000000000000000000006001600160a01b03166388316456846040518263ffffffff1660e01b81526004016108b59190610ef7565b6080604051808303816000875af11580156108d4573d6000803e3d6000fd5b505050506040513d601f19601f820116820180604052508101906108f89190610fbb565b50509150915061091233898b60400151848989600061094e565b505050505050505050565b6000602052816000526040600020818154811061093957600080fd5b90600052602060002001600091509150505481565b604080516001600160a01b0388166020820152600285810b9282019290925283820b60608201529086900b60808201526001600160801b03851660a082015260009060c001604051602081830303815290604052905060007f00000000000000000000000000000000000000000000000000000000000000006001600160a01b031663fa31de016064610a077f00000000000000000000000000000000000000000000000000000000000000006001600160a01b031690565b858d604051602001610a1a929190610cb5565b6040516020818303038152906040526040518463ffffffff1660e01b8152600401610a4793929190610cdf565b6020604051808303816000875af1158015610a66573d6000803e3d6000fd5b505050506040513d601f19601f82011682018060405250810190610a8a9190610d0d565b50505050505050505050565b6001600160a01b0381168114610aab57600080fd5b50565b8035610ab981610a96565b919050565b60008060408385031215610ad157600080fd5b8235610adc81610a96565b946020939093013593505050565b8060020b8114610aab57600080fd5b8035610ab981610aea565b60008082840360e0811215610b1857600080fd5b60c0811215610b2657600080fd5b5060405160c0810181811067ffffffffffffffff82111715610b5857634e487b7160e01b600052604160045260246000fd5b604052610b6484610aae565b8152610b7260208501610af9565b6020820152610b8360408501610af9565b6040820152610b9460608501610aae565b60608201526080840135608082015260a084013560a082015280925050610bbd60c08401610aae565b90509250929050565b6001600160801b0381168114610aab57600080fd5b600080600080600080600060e0888a031215610bf657600080fd5b8735610c0181610a96565b96506020880135610c1181610a96565b95506040880135610c2181610aea565b94506060880135610c3181610bc6565b93506080880135610c4181610aea565b925060a0880135610c5181610aea565b8092505060c0880135905092959891949750929550565b6000815180845260005b81811015610c8e57602081850181015186830182015201610c72565b81811115610ca0576000602083870101525b50601f01601f19169290920160200192915050565b604081526000610cc86040830185610c68565b905060018060a01b03831660208301529392505050565b63ffffffff84168152826020820152606060408201526000610d046060830184610c68565b95945050505050565b600060208284031215610d1f57600080fd5b5051919050565b600060208284031215610d3857600080fd5b8151610d4381610a96565b9392505050565b6001600160a01b039384168152919092166020820152604081019190915260600190565b600060208284031215610d8057600080fd5b81518015158114610d4357600080fd5b600060208284031215610da257600080fd5b8151610d4381610aea565b634e487b7160e01b600052601160045260246000fd5b60008160020b8360020b627fffff600082136000841383830485118282161615610def57610def610dad565b627fffff196000851282811687830587121615610e0e57610e0e610dad565b60008712925085820587128484161615610e2a57610e2a610dad565b85850587128184161615610e4057610e40610dad565b5050509290910295945050505050565b60008160020b8360020b6000811281627fffff1901831281151615610e7757610e77610dad565b81627fffff018313811615610e8e57610e8e610dad565b5090039392505050565b60008160020b8360020b6000821282627fffff03821381151615610ebe57610ebe610dad565b82627fffff19038212811615610ed657610ed6610dad565b50019392505050565b60008219821115610ef257610ef2610dad565b500190565b81516001600160a01b0316815261016081016020830151610f2360208401826001600160a01b03169052565b506040830151610f3a604084018262ffffff169052565b506060830151610f4f606084018260020b9052565b506080830151610f64608084018260020b9052565b5060a083015160a083015260c083015160c083015260e083015160e083015261010080840151818401525061012080840151610faa828501826001600160a01b03169052565b505061014092830151919092015290565b60008060008060808587031215610fd157600080fd5b845193506020850151610fe381610bc6565b604086015160609096015194979096509250505056fea2646970667358221220e416f7fb4a81a3648ce331e6624cd34abe045d98711a88dcdec8ee634c608dd664736f6c634300080a0033",
  "devdoc": {
    "kind": "dev",
    "methods": {},
    "version": 1
  },
  "userdoc": {
    "kind": "user",
    "methods": {},
    "version": 1
  },
  "storageLayout": {
    "storage": [
      {
        "astId": 2519,
        "contract": "contracts/vaults/otherChainVault.sol:otherChainVault",
        "label": "userPositions",
        "offset": 0,
        "slot": "0",
        "type": "t_mapping(t_address,t_array(t_uint256)dyn_storage)"
      }
    ],
    "types": {
      "t_address": {
        "encoding": "inplace",
        "label": "address",
        "numberOfBytes": "20"
      },
      "t_array(t_uint256)dyn_storage": {
        "base": "t_uint256",
        "encoding": "dynamic_array",
        "label": "uint256[]",
        "numberOfBytes": "32"
      },
      "t_mapping(t_address,t_array(t_uint256)dyn_storage)": {
        "encoding": "mapping",
        "key": "t_address",
        "label": "mapping(address => uint256[])",
        "numberOfBytes": "32",
        "value": "t_array(t_uint256)dyn_storage"
      },
      "t_uint256": {
        "encoding": "inplace",
        "label": "uint256",
        "numberOfBytes": "32"
      }
    }
  }
}